:060000000A128A11122809
:10000800FE00030EF6000408F7000A08F800831241
:1000180003137F08F9000A128A11CB2E0A128A11DB
:100028001528831603170130BF000230FD0083171F
:1000380090308400BE300A128A11A227FA01FB010F
:10004800FC0183010A168A11F32C1B3076260A124A
:100058008A115B3076260A128A11323076260A1205
:100068008A114A3076263230EE009030EF006F0861
:10007800FF006E0884000A168A1100200A128A11ED
:10008800003A031957286F08FF006E0884000A1603
:100098008A1100200A128A1176260A128A11EE0A9B
:1000A8000319EF0A3B286430A000A1012D08A30022
:1000B8002C08A2007D260A128A1121088316CF0077
:1000C800831220088316CE00C4014F04031D9F2805
:1000D800303076260A128A11B1284408303E84004E
:1000E8000A308312A700A80183164F088312AA00BA
:1000F80083164E088312A900A7260A128A11270818
:10010800303E8313800083160A30C40A8312A0008D
:10011800A10183164F088312A30083164E08831289
:10012800A2007D260A128A1121088316CF008312A5
:1001380020088316CE004E084F040319AD287128F5
:10014800C4034408303E84008313000876260A124C
:100158008A1183164408031DA4282E3076260A1215
:100168008A116430A700A8012D08AA002C08A9004C
:10017800A7260A128A1128088316D1008312270895
:100188008316D000C5015104031DFD2830307626A2
:100198000A128A110F294508363E84000A30831254
:1001A800A700A801831651088312AA0083165008D5
:1001B8008312A900A7260A128A112708303E831342
:1001C800800083160A30C50A8312A000A101831695
:1001D80051088312A300831650088312A2007D26BB
:1001E8000A128A1121088316D10083122008831667
:1001F800D0005008510403190B29CF28C50345081E
:10020800363E84008313000876260A128A11831664
:100218004508031D02299C308316A0009030A100D8
:1002280021088312FF0083162008840083120A160F
:100238008A1100200A128A11003A031938298316F4
:1002480021088312FF0083162008840083120A16EF
:100258008A1100200A128A1176260A128A11831638
:10026800A00A0319A10A142993308316A200913019
:10027800A30023088312FF00831622088400831238
:100288000A168A1100200A128A11003A03196129F4
:10029800831623088312FF00831622088400831222
:1002A8000A168A1100200A128A1176260A128A1161
:1002B8008316A20A0319A30A3D29831603173B0CC8
:1002C80001390313D200D301C6015304031D9F292A
:1002D800303076260A128A11B12946083C3E84003D
:1002E8000A308312A700A801831653088312AA00B4
:1002F800831652088312A900A7260A128A11270812
:10030800303E8313800083160A30C60A8312A00089
:10031800A101831653088312A3008316520883127F
:10032800A2007D260A128A1121088316D30083129F
:1003380020088316D200520853040319AD297129E5
:10034800C60346083C3E84008313000876260A123A
:100358008A1183164608031DA429F3308316A400C6
:100368009030A50025088312FF0083162408840016
:1003780083120A168A1100200A128A11003A0319F8
:10038800DA29831625088312FF00831624088400BF
:1003980083120A168A1100200A128A1176260A1276
:1003A8008A118316A40A0319A50AB6297B30831675
:1003B800A6009130A70027088312FF00831626089D
:1003C800840083120A168A1100200A128A11003A40
:1003D8000319032A831627088312FF0083162608A9
:1003E800840083120A168A1100200A128A117626BE
:1003F8000A128A118316A60A0319A70ADF29831687
:1004080003173B0801390313D400D501C70155046C
:10041800031D412A303076260A128A11532A4708CA
:10042800423E84000A308312A700A80183165508AB
:100438008312AA00831654088312A900A7260A1259
:100448008A112708303E8313800083160A30C70AB2
:100458008312A000A101831655088312A3008316F6
:1004680054088312A2007D260A128A1121088316D5
:10047800D500831220088316D400540855040319A4
:100488004F2A132AC7034708423E840083130008F3
:1004980076260A128A1183164708031D462AF33066
:1004A8008316A8009030A90029088312FF0083163C
:1004B8002808840083120A168A1100200A128A1159
:1004C800003A03197C2A831629088312FF00831631
:1004D8002808840083120A168A1100200A128A1139
:1004E80076260A128A118316A80A0319A90A582A15
:1004F8008B308316AA009130AB002B088312FF00C3
:1005080083162A08840083120A168A1100200A1208
:100518008A11003A0319A52A83162B088312FF00B3
:1005280083162A08840083120A168A1100200A12E8
:100538008A1176260A128A118316AA0A0319AB0AA7
:10054800812A831603173B0C83120313AE002E0C6B
:1005580001398316D600D701C8015704031DE72ABD
:10056800303076260A128A11F92A4808483E840053
:100578000A308312A700A801831657088312AA001D
:10058800831656088312A900A7260A128A1127087B
:10059800303E8313800083160A30C80A8312A000F5
:1005A800A101831657088312A300831656088312E5
:1005B800A2007D260A128A1121088316D700831209
:1005C80020088316D600560857040319F52AB92AB5
:1005D800C8034808483E84008313000876260A1298
:1005E8008A1183164808031DEC2AF3308316AC00E1
:1005F8009030AD002D088312FF0083162C0884006C
:1006080083120A168A1100200A128A11003A031965
:10061800222B83162D088312FF0083162C088400D2
:1006280083120A168A1100200A128A1176260A12E3
:100638008A118316AC0A0319AD0AFE2AA330831661
:10064800AE009130AF002F088312FF0083162E08EA
:10065800840083120A168A1100200A128A11003AAD
:1006680003194B2B83162F088312FF0083162E08BD
:10067800840083120A168A1100200A128A1176262B
:100688000A128A118316AE0A0319AF0A272B83169A
:1006980003173B0C83120313AE00AE0C2E0C01396A
:1006A8008316D800D901C9015904031D8E2B303097
:1006B80076260A128A11A02B49084E3E84000A3079
:1006C8008312A700A801831659088312AA0083166B
:1006D80058088312A900A7260A128A112708303E53
:1006E8008313800083160A30C90A8312A000A1016F
:1006F800831659088312A300831658088312A20090
:100708007D260A128A1121088316D900831220082F
:100718008316D8005808590403199C2B602BC90369
:1007280049084E3E84008313000876260A128A116F
:1007380083164908031D932BF3308316B0009030BD
:10074800B10031088312FF00831630088400831239
:100758000A168A1100200A128A11003A0319C92BB5
:10076800831631088312FF00831630088400831231
:100778000A168A1100200A128A1176260A128A118C
:100788008316B00A0319B10AA52BF6308316B200F6
:100798009030B30033088312FF00831632088400B8
:1007A80083120A168A1100200A128A11003A0319C4
:1007B800F22B831633088312FF0083163208840055
:1007C80083120A168A1100200A128A1176260A1242
:1007D8008A118316B20A0319B30ACE2B9B308316EB
:1007E800B4009130B50035088312FF008316340831
:1007F800840083120A168A1100200A128A11003A0C
:1008080003191B2C831635088312FF00831634083E
:10081800840083120A168A1100200A128A11762689
:100828000A128A118316B40A0319B50AF72B83161C
:1008380003173B0E83120313AE002E0C01398316E7
:10084800DA00DB01CA015B04031D5D2C303076261B
:100858000A128A116F2C4A08543E84000A30831207
:10086800A700A80183165B088312AA0083165A08FA
:100878008312A900A7260A128A112708303E83137B
:10088800800083160A30CA0A8312A000A1018316C9
:100898005B088312A30083165A088312A2007D26E0
:1008A8000A128A1121088316DB0083122008831696
:1008B800DA005A085B0403196B2C2F2CCA034A0868
:1008C800543E84008313000876260A128A11831680
:1008D8004A08031D622CF3308316B6009030B70027
:1008E80037088312FF0083163608840083120A161D
:1008F8008A1100200A128A11003A0319982C8316CB
:1009080037088312FF0083163608840083120A16FC
:100918008A1100200A128A1176260A128A11831671
:10092800B60A0319B70A742CAB308316B800913095
:10093800B90039088312FF0083163808840083122F
:100948000A168A1100200A128A11003A0319C12CCA
:10095800831639088312FF0083163808840083122F
:100968000A168A1100200A128A1176260A128A119A
:100978008316B80A0319B90A9D2C831603173B0E70
:1009880001390313DC00DD01CB015D04031DFF2CDD
:10099800303076260A128A11112D4B085A3E8400EF
:1009A8000A308312A700A80183165D088312AA00E3
:1009B80083165C088312A900A7260A128A11270841
:1009C800303E8313800083160A30CB0A8312A000BE
:1009D800A10183165D088312A30083165C088312A5
:1009E800A2007D260A128A1121088316DD008312CF
:1009F80020088316DC005C085D0403190D2DD12C3A
:100A0800CB034B085A3E84008313000876260A124B
:100A18008A1183164B08031D042DF3308316BA0080
:100A28009030BB003B088312FF0083163A0884000D
:100A380083120A168A1100200A128A11003A031931
:100A48003A2D83163B088312FF0083163A08840068
:100A580083120A168A1100200A128A1176260A12AF
:100A68008A118316BA0A0319BB0A162D8330831616
:100A7800BC009130BD003D088312FF0083163C087E
:100A8800840083120A168A1100200A128A11003A79
:100A98000319632D83163D088312FF0083163C0853
:100AA800840083120A168A1100200A128A117626F7
:100AB8000A128A118316BC0A0319BD0A3F2D831630
:100AC80003173D080313C30003173C080313C200B0
:100AD800C31FD72D2D3076260A128A11EC01EC0A95
:100AE800ED0183164208013E8312AE0083164308C7
:100AF8000318013E8312AF002E08EC022F08031CD6
:100B0800ED03ED026D088316DF0083126C0883166F
:100B1800DE00CC015F04031DC42D303076260A1296
:100B28008A11242E4C08603E84000A308312A700E4
:100B3800A80183165F088312AA0083165E08831231
:100B4800A900A7260A128A112708303E83138000BD
:100B580083160A30CC0A8312A000A10183165F080D
:100B68008312A30083165E088312A2007D260A1250
:100B78008A1121088316DF00831220088316DE00FD
:100B88005E085F040319D22D962DCC034C08603EF5
:100B980084008313000876260A128A1183164C08EB
:100BA8000319242EC92D4308E1004208E000CD01B5
:100BB8006104031D122E303076260A128A11242E63
:100BC8004D08663E84000A308312A700A8018316E8
:100BD80061088312AA00831660088312A900A72659
:100BE8000A128A112708303E8313800083160A30C0
:100BF800CD0A8312A000A101831661088312A30005
:100C0800831660088312A2007D260A128A11210821
:100C18008316E100831220088316E000600861044F
:100C28000319202EE42DCD034D08663E840083135E
:100C3800000876260A128A1183164D08031D172EFE
:100C4800F3308316BE009030BF003F088312FF00C8
:100C580083163E08840083120A168A1100200A129D
:100C68008A11003A03194D2E83163F088312FF009C
:100C780083163E08840083120A168A1100200A127D
:100C88008A1176260A128A118316BE0A0319BF0A28
:100C9800292E21308316C0009130C10041088312EB
:100CA800FF0083164008840083120A168A11002068
:100CB8000A128A11003A03190800831641088312A0
:100CC800FF0083164008840083120A168A11002048
:100CD8000A128A1176260A128A118316C00A031983
:100CE800C10A522E8312A0000C1E782E20089900EB
:100CF8000800A401A501200821040319A22EA601B9
:100D0800A60AA11B8B2E0310A00DA10D842E031083
:100D1800A40DA50D21082302031D942E20082202EC
:100D2800031C9E2E2008A2022108031CA303A30271
:100D380024140310A10CA00CA60B8B2E2508A100CF
:100D48002408A0000800270828040319C62EAB01B0
:100D5800AB0AA81BB32E0310A70DA80DAC2E2808AC
:100D68002A02031DB92E27082902031CC22E2708B0
:100D7800A9022808031CAA03AA020310A80CA70C9E
:100D8800AB0BB32E2A08A8002908A70008000C1CE2
:100D9800DF2E0C10FB308F001E308E0083160317D9
:100DA800940A0319950A0319960A0319970AFD2646
:100DB8000A128A11EC26790883120313FF007808B7
:100DC8008A0077088400760E8300FE0E7E0E0900E6
:100DD80083120313871AF92E83160317220FA20A08
:100DE8001430220603192614080083160317A201DB
:100DF800080083120313070C0139F00007080139B2
:100E0800F10071077004F500831603173E060319F5
:100E18004F2F3E08F00001300310F00DFF3E031085
:100E2800031D112F700D7504F200123E84009030DE
:100E38000318013E83120313FF000A168A110020CB
:100E48000A128A11F300730803194A2F7308F00075
:100E5800F101F01BF103831603179A0703189B0A85
:100E680071089B0718081A02F400803A7E3E031C9A
:100E7800402F0130FD00462F7408803A813E031848
:100E88004A2FFD011B0899001A0898007508831657
:100E98000317BE0008000230FD0008000730831663
:100EA8009C00831297019D01063083169F008501DF
:100EB8008601BF3087008312850186018701423091
:100EC8008316810040308B0001308C002130831262
:100ED8009000FB308F001E308E000800F030831623
:100EE8008604860581130F30831286047B2F8316B0
:100EF80003170F309D019C01A1019E01A0019F01D4
:100F080083120313860408008316071487148312B8
:100F1800070C0139A00007080139A10021072004A6
:100F280083160317BE000800871507163130930093
:100F380080309400283083129400080064008001F7
:0C0F4800840A0406031900340406A32FD9
:101022002508031908000D297B0883120313AB005E
:101032007A08AA00AC01AD011A260A128A158D237C
:101042000A128A15043083120313A80000301F23EA
:101052000A128A15693083120313A1009130A2008B
:101062009C250A128A150330A80001301F237B0831
:1010720083120313AD007A08AC00A730AE000A1643
:101082008A1174260A128A15A730A1000130A20023
:101092009C250A128A15B330A1009130A2009C252A
:1010A2000A128A15023083160317A4003230031382
:1010B200E200E301E401E501031714080313E20768
:1010C200031715080318150F672869280313E30788
:1010D200031716080318160F6F2871280313E40765
:1010E200031717080318170A0313E5076508031700
:1010F2009300031364080317920003136308031792
:1011020091000313620803179000080013081702E6
:10111200031D952812081602031D952811081502B1
:10112200031D952810081402031C08000330A400B4
:101132000800BB30A9230A128A15831603173B182D
:101142003B1EE7287B0883120313AB007A08AA0030
:10115200003046230A128A1500304D230A128A15DE
:101162002508AB002408AA00AC01AC0AAD011A267E
:101172000A128A1583160317A501E328831603179B
:101182003030A50183120313AA002A30D028831617
:101192000317BE30A50183120313AA001930AB0056
:1011A200003046230A128A1500304D230A128A158E
:1011B2002508AB002408AA00AC01AC0AAD011A262E
:1011C2000A128A155A230A128A159C2B3F08831287
:1011D2000313A700A801A71BA8030A30A900AA01AC
:1011E20006230A128A152708FA070318FB0A280899
:1011F200FB072A307B02313003197A020318BF2819
:1012020019307B02BE3003197A02031CC8288316E8
:101212000317A401A40A08002408013A0319152897
:10122200033A03198728013A03199A281829080052
:1012320035080313EE00031723083030031D772906
:1012420003136E02031C08003A306E0203180800F2
:101252000317A301A30AFC01831203130630A001A2
:10126200A101A200AF30A30132230A128A1583160C
:101272006E080317AF00FC0A7C08AF3E8400831798
:1012820080018D230A128A15831203130030A801EC
:101292001F230A128A155D3083120313A1009130B5
:1012A200A2009C250A128A150130A8011F230A12E6
:1012B2008A154C3083120313A1009130A2009C25A1
:1012C2000A128A150330A80001301F230A128A1558
:1012D200AF3083120313A1000130A2009C250A1231
:1012E2008A15B330A1009130A2009C2D03136E0227
:1012F200031C4E2A3A306E0203184E2A05307C0235
:10130200031808007C08AF3E84006E088317800033
:10131200FC0A7C08AF3E8400033080018312A800DF
:1013220001301F230A128A15AF3083120313A10062
:101332000130A2009C250A128A15B330A100913017
:10134200A2009C250A128A1505307C06031D08009E
:101352008316AF30E401E501EC006C0884008317CA
:1013620000080319E5296C08840030300002031CD0
:10137200E3296C0884003A3000020318E3296C0860
:10138200840065088312A800831664088312A700EC
:101392000A30A900AA0106230A128A158317000837
:1013A20027078316E2000030031801308312280752
:1013B2008316E3006208D03EE40063080318013E8E
:1013C200FF3EE500EC0AAE290A308312A000A1011B
:1013D20083166408053E8312A2008316650803186B
:1013E200013E003E8312A3000A128A117D260A12D0
:1013F2008A152108A8002008A7000A30A900AA011E
:1014020006230A128A1528088316EB00831227087E
:101412008316EA0019306B02BE3003196A02031800
:10142200162ABE30EA001930EB002A306B02313046
:1014320003196A02031C212A3030EA002A30EB0029
:101442006B088312AB0083166A088312AA0000306D
:1014520046230A128A1500304D230A128A152508DE
:10146200AB002408AA00AC01AC0AAD011A260A128C
:101472008A155A230A128A159C230A128A15831680
:101482000317A301831203130630A001A101A200D6
:10149200AF30A3013223FC0108002A306E06031D7F
:1014A200642A0317A301831203130630A001A101CA
:1014B200A200AF30A30132230A128A15FC01632A6B
:1014C2000317A3015A2B23306E06031D08007C0864
:1014D2000319612AAF30E601E701ED006D088400CF
:1014E200831700080319A62A6D0884003030000211
:1014F200031CA42A6D0884003A3000020318A42AAF
:101502006D08840067088312A80083166608831298
:10151200A7000A30A900AA0106230A128A15831716
:10152200000827078316E2000030031801308312F7
:1015320028078316E3006208D03EE600630803181A
:10154200013EFF3EE700ED0A6F2A0A308312A00037
:10155200A10183166608053E8312A200831667085E
:101562000318013E003E8312A3000A128A117D264F
:101572000A128A152108A8002008A7000A30A9002B
:10158200AA0106230A128A1528088316E900831283
:1015920027088316E80019306902BE300319680271
:1015A200031CF62A2A306902313003196802031833
:1015B200F62A69088312AB00831668088312AA0010
:1015C200003046230A128A1500304D230A128A156A
:1015D2002508AB002408AA00AC01AC0AAD011A260A
:1015E2000A128A159C230A128A1583160317A3016D
:1015F200831203130630A001A101A200AF30A301A0
:1016020032230A128A15FC015A2BAB01AC01271CAA
:10161200102B2908AB070318AC0A2A08AC070310E1
:10162200A90DAA0D0310A80CA70C27082804031D56
:10163200082B2C08A8002B08A7000800A900272BBC
:101642002808252B2808403EAA002F2B2908003AFB
:101652000319212B013A0319232B212B2A08803845
:10166200232DA500A4000130A2020030031CA30315
:10167200A302220F3F2B230A031908002408840027
:10168200200883178000A40A342BAC002A30A00063
:101692000230A1002C08A72F83120313A900A00077
:1016A2000230A1002730DC272808A5002708A40063
:1016B20008008D230A128A15043083120313A8002E
:1016C20000301F230A128A15723083120313A100FD
:1016D2009130A2009C250A128A150330A80001301D
:1016E2001F230A128A1500304D232508AD00240855
:1016F200AC00A730AE000A168A1174260A128A15A7
:10170200A730A1000130A2009C250A128A15B3302D
:10171200A1009130A2009C2D013023250A128A15C6
:101722000D3083120313A900FB30A800A80B972BDE
:10173200A90B972B0800BB30A9230A128A15003087
:101742004D232508AD002408AC000A128A1129286D
:1017520083120313A60071270A128A15C130622769
:101762000A128A1501308C270A128A15A5007F27D2
:101772000A128A1571270A128A15873062270A12FD
:101782008A1501308C270A128A15A4007F270A12B3
:101792008A15251FCE2B0130CF2B0030A100260841
:1017A2008400831700082106FE3921068000A51F48
:1017B200DC2B0130DD2B0030A10026088400A10DB6
:1017C20000082106FD3921068000A51DEA2B013003
:1017D200EB2B0030A10026088400A10DA10D00080A
:1017E2002106FB3921068000A201251DFE2B2508BA
:1017F2000339031DFE2BA201A20A26088400220837
:1018020001398011031D8015A41E092C01300A2CF8
:101812000030A10026088400A10E00082106EF393D
:1018220021068000241F172C0130182C0030A10043
:1018320026088400A10EA10D00082106DF39210629
:101842008000A41F262C0130272C0030A10026087E
:101852008400A10EA10DA10D00082106BF392106A9
:1018620080000310240CA3000F30A305BE2C260A0F
:10187200840044308000FF30840A80000800260A79
:1018820084005D308000FF30840A80000800260A50
:10189200840076308000FF30840A80000800260A27
:1018A20084008F308000FF30840A80000800260AFE
:1018B2008400A8308000FF30840A80000800260AD5
:1018C2008400C1308000FF30840A80000800260AAC
:1018D2008400DA308000FF30840A80000800260A83
:1018E2008400F3308000FF30840A80000800260A5A
:1018F20084000D3080000030840A80010800260A2E
:101902008400263080000030840A80010800260A04
:1019120084003F3080000030840A80010800260ADB
:101922008400583080000030840A80010800260AB2
:101932008400713080000030840A80010800260A89
:1019420084008A3080000030840A80010800260A60
:101952008400A33080000030840A80010800260A37
:101962008400BC3080000030840A80010800260A0E
:1019720084008001840A800108002308003A0319C8
:10198200702C013A0319682C033A0319602C013AAE
:101992000319582C073A0319502C013A0319482C01
:1019A200033A0319402C013A0319382C0F3A031950
:1019B200B02C013A0319A82C033A0319A02C013ABE
:1019C2000319982C073A0319902C013A0319882C11
:1019D200033A0319802C013A0319782CB82C080019
:1019E20071270A128A150C3062270A128A158E3064
:1019F20062270A128A15C83062270A128A15043031
:101A020062270A128A15303062270A128A157F2746
:101A12000A128A1571270A128A15863062270A125B
:101A22008A15003062270A128A15203062270A12AC
:101A32008A15403062270A128A15003062270A127C
:101A42008A157F2F83120313A700A300F030A3058A
:101A5200270EF039A400F030A4052308F039083825
:101A6200A50071270A128A154E3062270A128A15BA
:101A72002508043862270A128A157F270A128A1556
:101A8200422D432D000071270A128A154E3062271B
:101A92000A128A152508FB3962270A128A157F273E
:101AA2000A128A15523083120313A100A10B572D7B
:101AB2000000831203132408F0390838A6007127A6
:101AC2000A128A154E3062270A128A15260804382D
:101AD20062270A128A157F270A128A15702D712D24
:101AE200000071270A128A154E3062270A128A15DF
:101AF2002608FB3962270A128A157F270A128A15DD
:101B0200523083120313A100A10B852D0000831212
:101B1200031327030319912D02302706031D080022
:101B22000D3083120313A200FB30A100A10B972DED
:101B3200A20B972D0800831203132208FF0021082D
:101B420084000A168A1100200A128A15003A031923
:101B520008002208FF00210884000A168A110020CA
:101B62000A128A15A600A10A0319A20AA400F030DB
:101B7200A405260EF039A500F030A5052408F03999
:101B82000938A70071270A128A154E3062270A12F5
:101B92008A152708043862270A128A157F270A1233
:101BA2008A15D32DD42D000071270A128A154E30C2
:101BB20062270A128A152708FB3962270A128A1538
:101BC2007F270A128A15523083120313A300A30B34
:101BD200E82D0000831203132508F0390938A80004
:101BE20071270A128A154E3062270A128A152808AE
:101BF200043862270A128A157F270A128A15012ED3
:101C0200022E000071270A128A154E3062270A122C
:101C12008A152808FB3962270A128A157F270A12B9
:101C22008A15523083120313A300A30B162E000051
:101C32009C2D71270A128A15C03062270530A00038
:101C4200A1012A082E3EA2002B080318013E043EE1
:101C5200A3000A128A117D260A128A152108622718
:101C62000530A000A1012A082E3EA2002B0803186D
:101C7200013E043EA3000A128A117D260A128A1529
:101C8200200862270A128A15883062270A128A15EA
:101C92002C0803194E2E19304F2E593062270A1282
:101CA2008A15503062270A128A157F270A128A156E
:101CB20071270A128A15863062270A128A150030A5
:101CC20062270A128A152C080319702E2D08031D8B
:101CD200702E4B3062270A128A15A0307B2E2C08F8
:101CE200031D7E2E2D08031D7E2E0B3062270A1245
:101CF2008A15203062270A128A15203062270A12BA
:101D02008A157F2F023083120313AA004530A900DF
:101D1200A930A800A80B8B2EA90B8B2EAA0B8B2EF9
:101D220071270A128A154E3062270A128A153C3030
:101D320062270A128A157F270A128A15A02EA12E5F
:101D4200000071270A128A154E3062270A128A157C
:101D5200383062270A128A157F270A128A155230F2
:101D620083120313A800A80BB42E000021308312A3
:101D72000313A9007530A800A80BBD2EA90BBD2E18
:101D8200C22E71270A128A154E3062270A128A154C
:101D92003C3062270A128A157F270A128A15D12E31
:101DA200D22E000071270A128A154E3062270A12BB
:101DB2008A15383062270A128A157F270A128A1575
:101DC200523083120313A800A80BE52E0000F9304D
:101DD20083120313A800A80BEC2E71270A128A158E
:101DE2004E3062270A128A153C3062270A128A157F
:101DF2007F270A128A15FD2EFE2E000071270A1275
:101E02008A154E3062270A128A15383062270A1262
:101E12008A157F270A128A15523083120313A800EB
:101E2200A80B112F0000F93083120313A800A80B8E
:101E3200182F71270A128A154E3062270A128A1544
:101E42002C3062270A128A157F270A128A15292F37
:101E52002A2F000071270A128A154E3062270A12B1
:101E62008A15283062270A128A157F270A128A15D4
:101E7200523083120313A800A80B3D2F0000F93043
:101E820083120313A800A80B442F283023250A121B
:101E92008A15083023250A128A15013023250A12D1
:101EA2008A150D3083120313A900FB30A800A80B7A
:101EB200582FA90B582F063023250A128A150C30E9
:101EC200232DA00083161419632F11081F39031D37
:101ED200632F8312200893008C1D6D2F8C11080034
:101EE200831603131419712F11081F39031D712F43
:101EF200111411187A2F83128C11080083161419E9
:101F02007F2F11081F39031D7F2F11151119872FDC
:101F120083128C110800A000831614198D2F11084A
:101F22001F39031D8D2F911583128C1D952F8C1136
:101F3200200803199F2F83169116A12F8316911241
:101F42001116111AA22F831213080800A3002008E9
:101F5200A200831603178C18AA2F831203132308D7
:101F6200FF3E03178D0083168C1383120313A10304
:101F7200210FBC2F0800831603178C18BC2F831265
:101F82000313220884008313000803178C00031331
:101F9200A20A03178D0A03108B1B03148B138316DB
:101FA2000C1555308D00AA308D008C140C11031CB9
:101FB200B62F8B17B62FA3002308A2008316031790
:101FC2008C18DF2F83120313200803178D000313CD
:101FD200A103210FED2F0800831603178C18ED2F94
:101FE2008C130C14831203132208840003170C08A9
:101FF200831380000313A20A03178D0AE82FFF1B25
:102002000A2883137F1883170008840A0319FF0A1A
:1020120008007F087F398A000408840A0319FF0A2E
:1020220082000034FF3401340034013400340034BF
:10203200FF34FF3400340034013400340134FF34FF
:102042000034313432343334413434343534363478
:10205200423437343834393443342A343034233434
:1020620044342A342A342A342A342A342A342A3464
:102072002A342A34203446344D3431343234313423
:1020820036344D34453420344434453442345534A6
:102092004734203442344F344134523444342034AF
:1020A2002A342A342A342A342A342A342A342A343E
:1020B2002A340A340D342A342A342A342A342A346B
:1020C2002A342A342A342A342A342A342A342A341E
:1020D2002A342A342A342A342A342A342A342A340E
:1020E2002A342A342A342A342A342A342A342A34FE
:1020F2002A342A342A342A342A342A342A342A34EE
:102102002A342A342A340A340D3420342034203438
:10211200203420342034203420342034203420341D
:10212200203446344D34203446345234453451340C
:102132003A34203400344D3448347A340A340D347D
:102142002A342A342A342A342A342A342A342A349D
:102152002A342A342A342A342A342A342A342A348D
:102162002A342A342A342A342A342A342A342A347D
:102172002A342A342A342A342A342A342A342A346D
:102182002A342A342A342A342A342A342A342A345D
:102192000A340D342A342A342A342A342A342A348A
:1021A2002A342A342A342A342034543455344E34CE
:1021B2004534523420345334543441345434553435
:1021C2005334203442344934543420342A342A34A7
:1021D2002A342A342A342A342A342A342A342A340D
:1021E2002A342A340A340D3400342A342A342A3464
:1021F2002A342A342A342A342A342A342A342A34ED
:102202002A3420344934463420345334543441344B
:102212005434553453342034423449345434203401
:102222002A342A342A342A342A342A342A342A34BC
:102232002A342A342A342A342A340A340D34003413
:102242002A342A342A342A342A342A342A342A349C
:102252002A342A342A342A342A342A342A342A348C
:102262002A342A342A342A342A342A342A342A347C
:102272002A342A342A342A342A342A342A342A346C
:102282002A342A342A342A342A342A342A342A345C
:102292000A340D34003420342034203420342034E5
:1022A200203420342034203420342034203420348C
:1022B200203420342034003445346E347434653490
:1022C2007234203446347234653471343A34003412
:1022D2005334433441344E344E3449344E3447340B
:1022E200003446344D342034543455344E3445345D
:1022F2005234003446344C343A34203420342034BE
:10230200203400344134463443343A3420342034C7
:10231200203400344134473443343A3420342034B6
:102322002034003450344F3452343A342034203480
:10233200203400345634493446344C343A34203450
:102342002034003453344F3455344E3444343A3408
:102352002034003446344D34493446344C343A3413
:0E2362002034003420344D3448347A340034B2
:1027780083120313B3003308031908008400831776
:102788008001330A8400023080013307AD008400E1
:102798008001840A8001840A8001840A80019E24C1
:1027A8000A168A11B20032080319DC2B0130DD2B1E
:1027B8000030B100831603171D06031DE92B0230F4
:1027C8001E020318F12B9E0AF12B9E01831203139C
:1027D8003108831603179D00080002301E02031CEF
:1027E80008001D0B132C1C08031D132C8312031344
:1027F80033088400320883178000330A840080017C
:10280800800A831603173230A0019F008312031336
:10281800320883160317A1009C019C0A08001D08B2
:10282800031D2D2C1C0B2D2C83120313330884003D
:102838008316031721088317800083120313330AB2
:1028480084000230800083160317A0019F019C01B9
:1028580008001D0B0800A00A200F342C3230A000FD
:1028680032302002031C08001F08031D6D2C831240
:10287800031333088400320883178000330A840066
:102888000430800083160317200883120313A7005F
:102898000A30A801A900AA010A128A1506232708E6
:1028A800AD002808AE00AF01B0013308023E840035
:1028B8002D0883178000840A2E088000840A2F08B8
:1028C8008000840A300880000A30831603179F00AE
:1028D800080083120313330884003208831780002A
:1028E800330A8400033080008316031720088312FC
:1028F8000313A7000A30A801A900AA010A128A1521
:1029080006232708AD002808AE00AF01B001330840
:10291800023E84002D0883178000840A2E08800058
:10292800840A2F088000840A300880008316031761
:102938009F030800A501043025020318F02C01307C
:10294800A000250AA92C0310A00DFF3E031DA72CEB
:102958002008FF3AA3000F39A0000608F039200428
:1029680086000000831203130608A400F030A405B3
:10297800A6010130A0002608043E013EC52C031024
:10298800A00DFF3E031DC32C20082405031DE92CC0
:102998000F3086042608A00001300310A00DFF3E6A
:1029A8000310031DD22C200D223EA10090300318E5
:1029B800013EA20025082107840022080318220AE4
:1029C800FF000A168A11002008000430A60A260211
:1029D800031CBD2CA50A9F2C0F30860400340A1254
:1029E8008A1152270A168A11831687170713181790
:1029F8009816181218158312981718171816813078
:102A0800831699000A128A1198270A168A110A123F
:102A18008A1188270A168A110A128A1583260A1625
:102A28008A110A128A15F1240A168A110A128A11C1
:102A380072270A168A1100300A128A154D230A16BF
:102A48008A112A3025023130031924020318392D3E
:102A580000300A128A154D230A168A1119302502E8
:102A6800BE30031924020318432D4030AA00243035
:102A7800AB0000300A128A1546230A168A11003064
:102A88000A128A154D230A168A112508AB00240854
:102A9800AA00AC01AC0AAD010A128A151A260A1658
:102AA8008A110A128A155A230A168A110A128A15D5
:102AB8009C230A168A118B17B5300A168A11BC2373
:102AC8000A168A1183160317360BEB2D25080319EE
:102AD800972DA5017B0883120313AB007A08AA007F
:102AE80000300A128A1546230A168A1100300A1283
:102AF8008A154D230A168A112508AB002408AA0056
:102B0800AC01AC0AAD010A128A151A260A168A11F6
:102B18000A128A155A230A168A110A128A159C2340
:102B28000A168A11EB2D41303506031DC02D2308E6
:102B3800031DEB2D0030A501A50ABF01BF0A0A122B
:102B48008A154D230A168A112508FB002408FA0065
:102B58000A30FA070318FB0A2A307B0231300319BE
:102B68007A02031CBB2DBE30FA001930FB00831615
:102B78000317A401A40AEB2D42303506031DE62DE8
:102B88002308031DEB2D0030A501A50ABF01BF03D3
:102B98000A128A154D230A168A112508FB002408F3
:102BA800FA00F630FA070318FB0AFF30FB07193062
:102BB8007B02BE3003197A020318BB2D3030FA00AD
:102BC8002A30BA2D0A128A1519210A168A11831673
:102BD800031725080319F52D0A128A1511200A165C
:102BE8008A11831603172508031D692E02307D02FA
:102BF8000318692E7D08031D262E00300A128A1537
:102C08004D230A168A1119302502BF3003192402F0
:102C1800031C1C2E00300A128A154D230A168A112D
:102C28002408F63EAA0025080318013EFF3E1F2E81
:102C3800BE30AA001930AB0000300A128A154623AC
:102C48000A168A117D0B4D2E00300A128A154D2363
:102C58000A168A112A302502303003192402031873
:102C6800432E00300A128A154D230A168A112408A9
:102C78000A3EAA0025080318013E003E462E3030C1
:102C8800AA002A30AB0000300A128A1546230A1619
:102C98008A1100300A128A154D230A168A1125084E
:102CA800AB002408AA00AC01AC0AAD010A128A15CF
:102CB8001A260A168A110A128A155A230A168A111E
:102CC8000A128A159C230A168A1183160317261CD2
:102CD800602D26100A128A159C230A168A11602D67
:102CE80027302D02103003192C02031C112F2E0837
:102CF80084000A30A7001030A801A0002730A100E6
:102D08002D08A3002C08A2000A128A117D260A1693
:102D18008A112108AA002008A9000A128A11A726E8
:102D28000A168A112708303E831780002E0A84006D
:102D38000A30A700E830A801A0000330A1002D0840
:102D4800A3002C08A2000A128A117D260A168A11ED
:102D58002108AA002008A9000A128A11A7260A1623
:102D68008A112708303E831780002E08023E84000F
:102D78000A30A7006430A801A000A1012D08A30013
:102D88002C08A2000A128A117D260A168A11210827
:102D9800AA002008A9000A128A11A7260A168A1171
:102DA8002708303E831780002E08033E84002E300B
:102DB80080002E08043E84000A30A700A801A00065
:102DC800A1012D08A3002C08A2000A128A117D2651
:102DD8000A168A112108AA002008A9000A128A11D5
:102DE800A7260A168A112708303E831780002E0866
:102DF800053E84000A30A700A8012D08AA002C0867
:102E0800A9000A128A11A7262708303E83178000D6
:102E18002E08063E84008001080003302D02E830A9
:102E280003192C02031C8E2F2E0884000A30A700D9
:102E3800E830A801A0000330A1002D08A3002C0849
:102E4800A2000A128A117D260A168A112108AA00F0
:102E58002008A9000A128A11A7260A168A1127082B
:102E6800303E831780002E0A84000A30A7006430A1
:102E7800A801A000A1012D08A3002C08A2000A1295
:102E88008A117D260A168A112108AA002008A9009D
:102E98000A128A11A7260A168A112708303E8317B4
:102EA80080002E08023E84002E3080002E08033E4B
:102EB80084000A30A700A801A000A1012D08A300E2
:102EC8002C08A2000A128A117D260A168A112108E6
:102ED800AA002008A9000A128A11A7260A168A1130
:102EE8002708303E831780002E08043E84000A30ED
:102EF800A700A8012D08AA002C08A9000A128A1107
:102F0800A7262708303E831780002E08053E840038
:102F18008001080000302D02643003192C02031CC4
:102F2800EB2F2E0884000A30A7006430A801A00007
:102F3800A1012D08A3002C08A2000A128A117D26DF
:102F48000A168A112108AA002008A9000A128A1163
:102F5800A7260A168A112708303E831780002E0AF2
:102F680084002E3080002E08023E84000A30A7001C
:102F7800A801A000A1012D08A3002C08A2000A1294
:102F88008A117D260A168A112108AA002008A9009C
:102F98000A128A11A7260A168A112708303E8317B3
:102FA80080002E08033E84000A30A700A8012D08DF
:102FB800AA002C08A9000A128A11A7262708303E61
:102FC800831780002E08043E84008001080000302A
:102FD8002D020A3003192C022E0884003030831782
:102FE80080002E0A84002E3080002E080318B82F87
:082FF800023E84003030D42FAA
:02400E0072FF3F
:0442000000000000BA
:00000001FF
