:060000000A128A11122809
:10000800FE00030EF6000408F7000A08F800831241
:1000180003137F08F9000A128A11422F0A128A1163
:1000280015280230CE00C801C901CA01CB01CC0194
:10003800FA01FB01FC01FD0183010A128A15E72E72
:1000480033270A128A11043083120313AA000030DE
:1000580020270A128A11553083120313A800893009
:10006800A90024260A128A110330AA000130202789
:100078000A128A11003038210A128A112508AD00A7
:100088002408AC00AF240A128A115E30A800893017
:10009800A900242E023083120313AC004530AB00B4
:1000A800A930AA00AA0B5628AB0B5628AC0B562829
:1000B800831203133030A10157260A128A11213006
:1000C80083120313AB007530AA00AA0B6928AB0B87
:1000D80069286E28831203133030A10157260A12AB
:1000E8008A11F93083120313AA00AA0B7928831204
:1000F80003133030A10157260A128A11F9308312EE
:100108000313AA00AA0B8628831203132030A10127
:1001180057260A128A11F93083120313AA00AA0B70
:1001280093282830F5260A128A110830F5260A1273
:100138008A110130F5260A128A110D308312031331
:10014800AB00FB30AA00AA0BA728AB0BA7280630E8
:10015800F5260A128A110C30F52E003038210A12C1
:100168008A1124080A3EAA0025080318013E003E09
:10017800AB00003021230A128A11003038210A12FC
:100188008A112A302502313003192402003003185D
:10019800282938210A128A112508AB002408AA0048
:1001A800AC01AD018D220A128A11023083120313A9
:1001B800C7004530C600A930C500C50BE128C60BED
:1001C800E128C70BE1284B3045210A128A114B1848
:1001D8004B1EFA28003038210A128A112508AB0074
:1001E8002408AA00AC01AC0AAD018D2A4B30452188
:1001F8000A128A11003038210A128A112508BF0014
:100208002408BE0028230A128A11003038210A1255
:100218008A1124080A3EAA0025080318013E003E58
:10022800AB00003021230A128A114A1DC1284A1145
:10023800003038210A128A112508AB002408AA00C8
:10024800AC01AC0AAD018D2A38210A128A112A3074
:100258002502303003192402031C0800BE30AA000E
:100268001930AB000030212B83120313A900A00022
:100278000230A10027309C262808A5002708A400E2
:10028800080083120313A6008A260A128A11C130B5
:10029800F6220A128A1101300A230A128A11A500CD
:1002A80093260A128A118A260A128A118730F622A0
:1002B8000A128A1101300A230A128A11A40093260D
:1002C8000A128A11251F6A2901306B290030A10002
:1002D80026088400831300082106FE3921068000C1
:1002E800A51F7829013079290030A100260884004B
:1002F800A10D00082106FD3921068000A51D8629CB
:10030800013087290030A10026088400A10DA10D25
:1003180000082106FB3921068000A201251D9A2923
:1003280025080339031D9A29A201A20A2608840078
:10033800220801398011031D8015A41EA52901304A
:10034800A6290030A10026088400A10E0008210675
:10035800EF3921068000241FB3290130B429003069
:10036800A10026088400A10EA10D00082106DF398E
:1003780021068000A41FC2290130C3290030A10032
:1003880026088400A10EA10DA10D00082106BF3981
:10039800210680000310240CA3000F30A305282A8F
:1003A800260A8400443080000800260A84005D3054
:1003B80080000800260A8400763080000800260A9B
:1003C80084008F3080000800260A8400A83080004E
:1003D8000800260A8400C13080000800260A84002C
:1003E800DA3080000800260A8400F3308000080014
:1003F800260A84000D3080000800260A8400263072
:1004080080000800260A84003F3080000800260A81
:100418008400583080000800260A8400713080006B
:100428000800260A84008A3080000800260A840012
:10043800A33080000800260A8400BC308000080031
:10044800260A8400800108002308003A0319F729C6
:10045800013A0319F229033A0319ED29013A03195C
:10046800E829073A0319E329013A0319DE29033A6F
:100478000319D929013A0319D4290F3A03191F2A54
:10048800013A03191A2A033A0319152A013A0319DA
:10049800102A073A03190B2A013A0319062A033AC4
:1004A8000319012A013A0319FC29242A08008A267B
:1004B8000A128A110C30F6220A128A118E30F6229C
:1004C8000A128A11C830F6220A128A110430F6225A
:1004D8000A128A113030F6220A128A1193260A1259
:1004E8008A118A260A128A118630F6220A128A117D
:1004F8000030F6220A128A112030F6220A128A11D6
:100508004030F6220A128A110030F6220A128A11A5
:10051800932E8A260A128A11C030F6220A128A11EC
:100528000530A000A1012A082E3EA2002B080318BE
:10053800013E043EA300FA250A128A112108F62278
:100548000A128A110530A000A1012A082E3EA20035
:100558002B080318013E043EA300FA250A128A114B
:100568002008F6220A128A118830F6220A128A1105
:100578002C080319C12A1930C22A5930F6220A1246
:100588008A115030F6220A128A1193260A128A1109
:100598008A260A128A118630F6220A128A11003037
:1005A800F6220A128A112C080319E32A2D08031DC2
:1005B800E32A4B30F6220A128A11A030EE2A2C08C0
:1005C800031DF12A2D08031DF12A0B30F6220A1209
:1005D8008A112030F6220A128A112030F6220A12D5
:1005E8008A11932EA00001230A128A11831220086F
:1005F80093008C1DFD2A8C1108008316031314190F
:10060800012B11081F3903190800012BA000012331
:100618000A128A11911583128C1D0F2B8C11200838
:100628000319192B831691161B2B83169112111679
:10063800111A1C2B831213080800AC002A30A000E2
:100648000230A1002C08C02E4C30AC008930AD001F
:100658001B30AE005B30AF01B0003230B101B200E8
:100668004A30B301B400B501DC230A128A112C30D8
:10067800AC008830AD00DC230A128A11AD30AC0022
:100688008830AD00DC230A128A116430A000A10171
:100698003F08A3003E08A200FA250A128A11210881
:1006A800C2002008C1006430A700A8013F08AA00C2
:1006B8003E08A900D6250A128A112808C40027086E
:1006C800C300D830AC008830AD004208AF00410804
:1006D800AE004408B1004308B000DC230A128A11B6
:1006E800AD30AC008830AD00DC230A128A115730D7
:1006F800AC008830AD00DC230A128A111C30AC0033
:100708008930AD004B0C0139AE00AF01DC230A1271
:100718008A110430AC008930AD004B080139AE00B5
:10072800AF01DC230A128A111030AC008930AD0009
:100738004B0CC000400C0139AE00AF01DC230A129B
:100748008A113430AC008930AD004B0CC000C00CAD
:10075800400C0139AE00AF01DC230A128A11823045
:10076800AC008830AD00DC230A128A112830AC00B6
:100778008930AD004B0EC000400C0139AE00AF010E
:10078800DC230A128A114030AC008930AD004B0ED0
:100798000139AE00AF01DC230A128A11F830AC002F
:1007A8008830AD004C08AE00AF01AE1BAF03DC2BA8
:1007B8002E30BA002D08B7002C08B600AC0A031971
:1007C800AD0A3708FF00360884000A128A1500208F
:1007D8000A128A11BD003D0803190800253A0319B9
:1007E800FA2B3D08A9240A128A11DE2BB9010A2C1A
:1007F8003A08840083130008BD00BA0ABA0A3D0803
:10080800A9240A128A11DE2B39172B2C2D08B700C0
:100818002C08B600AC0A0319AD0A3708FF003608E1
:1008280084000A128A1500200A128A11BD00003AB3
:100838000319A82C633A0319FC2B073A03192B2C2C
:100848000D3A03192B2C1C3A0319082C032C391BBD
:10085800412C3A08840083130008BB00840A00086E
:10086800BC00BA0ABA0ABC1F4B2C0330B904BB0936
:10087800BC09BB0A0319BC0A4B2C3A088400831331
:100888000008BB00840A0008BC00BA0ABA0ABD0105
:10089800BD0A03103D0D223E840088300318013E36
:1008A800FF000A128A1500200A128A11B6000A12DD
:1008B8008A1500200A128A11B7003C02031D662C13
:1008C80036083B02031C6D2C0530BD0A3D06031D8E
:1008D8004D2C390803390319752C2D30A9240A1217
:1008E8008A113D08B800A42C0A30A700A8010310FB
:1008F800380D223E840088300318013EFF000A129A
:100908008A1500200A128A11A0000A128A150020EE
:100918000A128A11A1003C08A3003B08A200FA258C
:100928000A128A112108AA002008A900D6250A124D
:100938008A112708303EBD003D08A9240A128A11F1
:10094800B803380F782CDE2B0800A0000C1EAA2C48
:1009580020089900080027302D02103003192C02B6
:10096800031C242D0A30A7001030A801A00027304E
:10097800A1002D08A3002C08A200FA250A128A114A
:100988002108AA002008A900D6250A128A112708DA
:10099800303EAE000A30A700E830A801A0000330BE
:1009A800A1002D08A3002C08A200FA250A128A111A
:1009B8002108AA002008A900D6250A128A112708AA
:1009C800303EAF000A30A7006430A801A000A101A2
:1009D8002D08A3002C08A200FA250A128A11210862
:1009E800AA002008A900D6250A128A112708303E35
:1009F800B0002E30B1000A30A700A801A000A10164
:100A08002D08A3002C08A200FA250A128A11210831
:100A1800AA002008A900D6250A128A112708303E04
:100A2800B2000A30A700A8012D08AA002C08A900C6
:100A3800D6250A128A112708303EB300B401D22DF8
:100A480003302D02E83003192C02031C812D0A30D3
:100A5800A700E830A801A0000330A1002D08A300DA
:100A68002C08A200FA250A128A112108AA002008D7
:100A7800A900D6250A128A112708303EAE000A308E
:100A8800A7006430A801A000A1012D08A3002C082C
:100A9800A200FA250A128A112108AA002008A90032
:100AA800D6250A128A112708303EAF002E30B00032
:100AB8000A30A700A801A000A1012D08A3002C0856
:100AC800A200FA250A128A112108AA002008A90002
:100AD800D6250A128A112708303EB1000A30A7002D
:100AE800A8012D08AA002C08A900D6250A128A11E7
:100AF8002708303EB200B301D22D00302D026430F9
:100B080003192C02031CB72D0A30A7006430A80172
:100B1800A000A1012D08A3002C08A200FA250A12A2
:100B28008A112108AA002008A900D6250A128A11CC
:100B38002708303EAE002E30AF000A30A700A801CB
:100B4800A000A1012D08A3002C08A200FA250A1272
:100B58008A112108AA002008A900D6250A128A119C
:100B68002708303EC32D00302D020A3003192C020D
:100B78003030AE002E30AF000318A12D3030B00059
:100B88000A30A700A8012D08AA002C08A900D6251C
:100B98000A128A112708303EB100B2012E30A8008F
:100BA800A901242E270828040319F52DAB01AB0A47
:100BB800A81BE22D0310A70DA80DDB2D28082A027B
:100BC800031DE82D27082902031CF12D2708A90277
:100BD8002808031CAA03AA020310A80CA70CAB0B35
:100BE800E22D2A08A8002908A7000800A401A501E9
:100BF8002008210403191F2EA601A60AA11B082EEE
:100C08000310A00DA10D012E0310A40DA50D2108A0
:100C18002302031D112E20082202031C1B2E20086C
:100C2800A2022108031CA303A30224140310A10C8D
:100C3800A00CA60B082E2508A1002408A000080077
:100C48002908FF00280884000A128A1500200A12C1
:100C58008A11003A031908002908FF0028088400AF
:100C68000A128A1500200A128A1142260A128A11CB
:100C780083120313A80A0319A90A242EA700A500A2
:100C8800F030A505270EF039A600F030A605A10121
:100C9800A10A250857260A128A1183120313A101F3
:100CA800A10A2608572EA300A400F030A4052103AA
:100CB80003192414A41524158A260A128A114E3001
:100CC800F6220A128A112408F6220A128A11932699
:100CD8000A128A116F2E702E00008312031324113A
:100CE8008A260A128A114E30F6220A128A1124081C
:100CF800F6220A128A1193260A128A115230831296
:100D08000313A200A20B862E0000080001230A127A
:100D18008A11111411188E2E83128C1108000123C8
:100D28000A128A1111151119972E83128C110800B5
:100D3800A3002308A200831603178C189F2E831282
:100D48000313200803178D000313A103210FAD2EF1
:100D58000800831603178C18AD2E8C130C148312FD
:100D680003132208840003170C088313800003135D
:100D7800A20A03178D0AA82EA3002008A200831632
:100D880003178C18C32E831203132308FF3E03177F
:100D98008D0083168C1383120313A103210FD52E04
:100DA8000800831603178C18D52E83120313220804
:100DB80084008313000803178C000313A20A031787
:100DC8008D0A03108B1B03148B1383160C155530D7
:100DD8008D00AA308D008C140C11031CCF2E8B179C
:100DE800CF2E83120313A900A700F030A705290E00
:100DF800F039A800F030A805A101270857260A12E3
:100E08008A1183120313A101280857260A128A118E
:100E18008312031329030319152F02302906031D12
:100E280008000D3083120313A600FB30A500A50BA4
:100E38001B2FA60B1B2F0800AB00282F2A08262FD4
:100E48002A08403EAC00302F2B08003A0319222F05
:100E5800013A0319242F222F2C088038F52E01304F
:100E6800F5260A128A110D3083120313AB00FB30EA
:100E7800AA00AA0B3D2FAB0B3D2F08000C1C4D2FD1
:100E88000C10FB308F001E308E0072270A128A1158
:100E980058277908FF0078088A0077088400760EBA
:100EA8008300FE0E7E0E09000719642F7D0A0319C0
:100EB8005E2FFD0A14307D06031D652F4A14652F29
:100EC800FD01871A702F7C0A03196B2FFC0A143056
:100ED8007C0603194A150800FC010800070C0139B3
:100EE800F00007080139F10071077004F5004D069C
:100EF8000319BA2F4D08F00001300310F00DFF3E22
:100F08000310031D822F700D7504F200123E840039
:100F180088300318013EFF000A128A1500200A12C1
:100F28008A11F30073080319B72F7308F000F10151
:100F3800F01BF103FA070318FB0A7108FB074808BE
:100F48007A02F400803A7E3E031CAD2F0130CE00B9
:100F5800B32F7408803A813E0318B72FCE017B085F
:100F6800C9007A08C8007508CD0008000230CE0014
:100F78000800073083169C00831297019D010630F4
:100F880083169F0085018601BF3087008312850183
:100F980086018701C2308316810040308B00013002
:100FA8008C00213083129000FB308F001E308E00A1
:100FB80008008316071487148312070C0139A00050
:100FC80007080139A10021072004CD000800871572
:100FD8000716313093008030940028308312940033
:020FE8000800FF
:10100000FF1B0A2883137F1883170008840A03191B
:10101000FF0A08007F087F398A000408840A031940
:10102000FF0A82000034FF340134003401340034FC
:101030000034FF34FF340034003401340034013410
:10104000FF340034013400340A3400346434003492
:10105000E8340334103427342A342A342A342A3426
:101060002A342A342A342A342A34203446344D345B
:1010700031343234313436344D3445342034443410
:101080004534423455344734203442344F344134AB
:101090005234443420342A342A342A342A342A3428
:1010A0002A342A342A342A340A340D3400342A34B7
:1010B0002A342A342A342A342A342A342A342A3440
:1010C0002A342034543455344E3445345234203488
:1010D000533454344134543455345334203442342A
:1010E0004934543420342A342A342A342A342A34D1
:1010F0002A342A342A342A342A342A342A340A3420
:101100000D3400342A342A342A342A342A342A3436
:101110002A342A342A342A342A342A3420344934CA
:1011200046342034533454344134543455345334D5
:10113000203442344934543420342A342A342A3472
:101140002A342A342A342A342A342A342A342A34AF
:101150002A342A340A340D3400342A342A342A3406
:101160002A342A342A342A342A342A342A342A348F
:101170002A342A342A342A342A342A342A342A347F
:101180002A342A342A342A342A342A342A342A346F
:101190002A342A342A342A342A342A342A342A345F
:1011A0002A342A342A342A342A340A340D340034B6
:1011B000203420342034203420342034203420348F
:1011C000203420342034203446344D342034463406
:1011D0005234453451343A342034253475342E3465
:1011E000253475344D3448347A340A340D3400349F
:1011F0004134463443343A342034203420342534C6
:1012000064340A340D34003446344C343A342034D7
:10121000203420342034253475340A340D3400341D
:101220004134473443343A34203420342034253494
:1012300075340A340D34003450344F3452343A3457
:10124000203420342034253475340A340D340034ED
:101250005634493446344C343A342034203425341E
:1012600075340A340D34003453344F3455344E340D
:1012700044343A342034253475340A340D3400347F
:1012800046344D34493446344C343A3420342534D1
:1012900075340A340D340034253463342534633412
:1012A0002534633425346334003446344D342034DB
:1012B000543455344E3445345234003420344D3493
:0612C00048347A340034CA
:101DCE000A128A11BD270A128A158316871707135E
:101DDE001817981618121815831298171817181620
:101DEE008130831699000A128A11EB270A128A157E
:101DFE000A128A11DD270A128A150A128A114E203A
:101E0E000A128A150A128A115B220A128A150030EA
:101E1E000A128A1138210A128A152A302502313007
:101E2E00031924020318282F00300A128A113821B0
:101E3E000A128A1519302502BE300319240203181E
:101E4E00322F4030AA002430AB0000300A128A1123
:101E5E0021230A128A1500300A128A1138210A1219
:101E6E008A152508AB002408AA00AC01AC0AAD0106
:101E7E000A128A118D220A128A150A128A11242038
:101E8E000A128A154B300A128A1145210A128A1536
:101E9E0000300A128A1138210A128A152508BF004D
:101EAE002408BE000A128A1128230A128A158B17DB
:101EBE0002304E020318DF2F4E08031D8B2F003009
:101ECE000A128A1138210A128A1519302502BF30DA
:101EDE0003192402031C812F00300A128A113821A3
:101EEE000A128A152408F63EAA0025080318013E98
:101EFE00FF3E842FBE30AA001930AB0000300A120C
:101F0E008A1121230A128A154E0BB22F00300A12A3
:101F1E008A1138210A128A152A3025023030031907
:101F2E0024020318A82F00300A128A1138210A122F
:101F3E008A1524080A3EAA0025080318013E003E11
:101F4E00AB2F3030AA002A30AB0000300A128A11B3
:101F5E0021230A128A1500300A128A1138210A1218
:101F6E008A152508AB002408AA00AC01AC0AAD0105
:101F7E000A128A118D220A128A150A128A11242037
:101F8E000A128A154B300A128A1145210A128A1535
:101F9E0000300A128A1138210A128A152508BF004C
:101FAE002408BE000A128A1128230A128A155F2FEE
:101FBE004A1CF72F4A104B300A128A1145210A1279
:101FCE008A1500300A128A1138210A128A1525083C
:101FDE00BF002408BE000A128A1128230A128A158D
:101FEE004A1D5F2F4A110A128A11B1200A128A1550
:021FFE00C42FEE
:02400E0072FF3F
:0442000000000000BA
:00000001FF
